:100000000C944E010C9476010C9476010C947601BC
:100010000C9476010C9476010C9476010C94AB054B
:100020000C9476010C9476010C9476010C94A9063C
:100030000C9476010C9476010C9476010C94760164
:100040000C945F060C9476010C942D060C94070614
:100050000C9476010C9476010C9476010C94760144
:100060000C9476010C947601000000000000005F03
:1000700000000007000700147F147F14242A7F2A41
:10008000122313086462364955225000050300000C
:10009000001C2241000041221C0014083E081408E4
:1000A000083E0808005030000008080808080060F2
:1000B00060000020100804023E5149453E00427F86
:1000C000400042615149462141454B311814127F8D
:1000D0001027454545393C4A494930017109050316
:1000E0003649494936064949291E0036360000007E
:1000F0005636000008142241001414141414004150
:100100002214080201510906324979413E7E11113B
:10011000117E7F494949363E414141227F4141227A
:100120001C7F494949417F090909013E4149497AF2
:100130007F0808087F00417F41002040413F017F48
:10014000081422417F404040407F020C027F7F0420
:1001500008107F3E4141413E7F090909063E415159
:10016000215E7F09192946464949493101017F012C
:10017000013F4040403F1F2040201F3F4038403F4C
:100180006314081463070870080761514945430068
:100190007F41410002040810200041417F00040219
:1001A0000102044040404040000102040020545439
:1001B00054787F48444438384444442038444448C0
:1001C0007F3854545418087E0901020C5252523E92
:1001D0007F0804047800447D40002040443D007FB7
:1001E0001028440000417F40007C041804787C08FB
:1001F00004047838444444387C1414140808141453
:10020000187C7C080404084854545420043F44409B
:10021000203C4040207C1C2040201C3C4030403C86
:1002200044281028440C5050503C4464544C440022
:100230000836410000007F00000041360800000041
:100240000000240027002A0000000008000201002E
:100250000003040700000000000000000000000090
:10026000250028002B0002000000002300260029A2
:10027000000404040404040404020202020202034F
:100280000303030303010204081020408001020459
:10029000081020010204081020005C0711241FBE72
:1002A000CFEFD8E0DEBFCDBF24E0AAE2B2E001C0CC
:1002B0001D92AD34B207E1F712E0A0E0B1E0EAEF41
:1002C000F5E202C005900D92AA32B107D9F711E00C
:1002D000CEE4D1E004C02197FE010E94F512CD3496
:1002E000D107C9F70E94E0070C94FB120C940000A0
:1002F000ACEFB2E011968C93119790E0FC01EB57B4
:10030000FD4FE4911496EC931497FC01EF58FD4FC8
:10031000E491F0E0EE0FFF1FE959FD4F85919491B4
:1003200013969C938E93129708950F931F93CF93D8
:10033000DF93E091F403F091F50340915E02808534
:1003400010E0481708F064C0142F117000915D028E
:1003500001114FC0842F90E0880F991FE80FF91FFB
:100360000184F285E02D2CEE3FEF112311F024E102
:1003700030E0C0915B02D0915C022C0F3D1FC9019F
:1003800063E470E00E94A712E617F70760F0C90166
:1003900068E270E00E94A7126F5F7F4F81E090E0FB
:1003A0006E177F0710F52C0F3D1FC90163E470E045
:1003B0000E94A712E617F70750F0C90168E270E043
:1003C0000E94A7126F5F7F4F6E177F0760F42C0F9C
:1003D0003D1FC90163E470E00E94A712E617F7070A
:1003E000E8F41FEF15C082E090E090935A028093EA
:1003F00059020F5F00935D028091590290915A0259
:100400000817190628F010925D024F5F40935E02B4
:10041000812FDF91CF911F910F910895C90168E25B
:1004200070E00E94A7126F5F7F4F6E177F07C8F2C0
:1004300083E090E0DACF80E480937C0080917A00C2
:10044000806480937A0080917A0086FDFCCF809151
:100450007800909179000895AF92BF92CF92DF9289
:10046000EF92FF920F931F93CF93DF936C017B0169
:100470008B01040F151FEB015E01AE18BF08C017FA
:10048000D10759F06991D601ED91FC910190F0816D
:10049000E02DC6010995892B79F7C501DF91CF9130
:1004A0001F910F91FF90EF90DF90CF90BF90AF9092
:1004B0000895FC01538D448D252F30E0842F90E06A
:1004C000821B930B541710F0CF960895019708954F
:1004D000FC01918D828D981761F0A28DAE0FBF2F18
:1004E000B11D5D968C91928D9F5F9F73928F90E06E
:1004F00008958FEF9FEF0895FC01918D828D9817DD
:1005000031F0828DE80FF11D858D90E008958FEF19
:100510009FEF0895FC01918D228D892F90E0805CE2
:100520009F4F821B91098F73992708958FE592E061
:100530000E948A0221E0892B09F420E0822F08958D
:1005400080E090E0892B29F00E94960281110C94A2
:1005500000000895FC01A48DA80FB92FB11DA35A66
:10056000BF4F2C91848D90E001968F739927848FD3
:10057000A689B7892C93A089B1898C9183708064F6
:100580008C93938D848D981306C00288F389E02D97
:1005900080818F7D80830895EF92FF920F931F9348
:1005A000CF93DF93EC0181E0888F9B8D8C8D981326
:1005B0001AC0E889F989808185FF15C09FB7F89432
:1005C000EE89FF896083E889F9898081837080647E
:1005D00080839FBF81E090E0DF91CF911F910F91C9
:1005E000FF90EF900895F62E0B8D10E00F5F1F4FD8
:1005F0000F731127E02E8C8D8E110CC00FB607FCE7
:10060000FACFE889F989808185FFF5CFCE010E9474
:10061000AA02F1CFEB8DEC0FFD2FF11DE35AFF4F36
:10062000F0829FB7F8940B8FEA89FB898081806202
:10063000CFCFCF93DF93EC01888D8823B9F0AA89BF
:10064000BB89E889F9898C9185FD03C0808186FD8D
:100650000DC00FB607FCF7CF8C9185FFF2CF8081DC
:1006600085FFEDCFCE010E94AA02E9CFDF91CF91A5
:10067000089590E0FC01E85BFD4F2491FC01EB57ED
:10068000FD4F3491FC01EF58FD4FE491EE23C9F08A
:10069000222339F0233001F1A8F4213019F122305E
:1006A00029F1F0E0EE0FFF1FE45AFD4FA591B49140
:1006B0008FB7F894EC91611126C030953E233C939E
:1006C0008FBF08952730A9F02830C9F0243049F7AA
:1006D000809180008F7D03C0809180008F77809310
:1006E0008000DFCF84B58F7784BDDBCF84B58F7D6D
:1006F000FBCF8091B0008F778093B000D2CF8091F4
:10070000B0008F7DF9CF3E2BDACF90910001891395
:100710000BC0E6E6F2E0E4919FEF90930001E13038
:1007200049F028F0E23061F060E00C943903109257
:100730006E00FACF90916F009D7F90936F00F4CF81
:10074000909170009D7F9093700091E09093B00025
:100750009091B100987F94609093B1001092B30093
:10076000E3CFCF93DF9390E0FC01EB57FD4F249153
:100770008F589D4FFC0184918823D1F090E0880F21
:10078000991FFC01E25CFD4FA591B491FC01E45A74
:10079000FD4FC591D49161110EC09FB7F8948C9113
:1007A000E22FE0958E238C932881E223E8839FBF7C
:1007B000DF91CF9108958FB7F894EC91E22BEC93F1
:1007C0008FBFF6CF3FB7F89480912F0290913002FF
:1007D000A0913102B091320226B5A89B05C02F3FEF
:1007E00019F00196A11DB11D3FBFBA2FA92F982F57
:1007F0008827BC01CD01620F711D811D911D42E052
:10080000660F771F881F991F4A95D1F708952FB754
:10081000F89460912B0270912C0280912D0290919E
:100820002E022FBF0895089590E080E00895882358
:1008300041F060E087E00E94390381E08093560236
:10084000089561E087E00E943903109256020895EE
:100850007F928F929F92AF92BF92CF92DF92EF9250
:10086000FF920F931F93CF93DF93782EEA01E091CD
:10087000F403F091F5033F968B010C5E1F4F43E4A8
:10088000C42ED12CC801B6010E94A7125B0158E208
:10089000E52EF12CC801B7010E94A7128B010F5F52
:1008A0001F4F6497CE01B6010E94A7124B01CE01E3
:1008B000B7010E94A712EB01219624513109C90109
:1008C000B6010E94A7126B01C901B7010E94A712CD
:1008D0006F5F7F4F20E030E0A901A0E0808191812F
:1008E0008A159B0570F10817190758F182819381C9
:1008F0008815990518F1C817D90728F1220F331F59
:10090000441F551F21603496AF5F7A12E7CF2093C2
:10091000F0033093F1034093F2035093F30381E02B
:10092000DF91CF911F910F91FF90EF90DF90CF90CB
:10093000BF90AF909F908F907F9008958C159D05EC
:1009400010F480E0EDCF68177907D8F3220F331F3A
:10095000441F551FD8CF0F931F93CF93DF93EC0104
:10096000042F8E8161112AC00E94390360E08D81BD
:100970000E9439038F818F3F19F488858F3FB1F032
:1009800018E060E08F810E94390307FF04C061E036
:100990008F810E94390361E088850E943903000F2E
:1009A00060E088850E943903115059F761E08D811C
:1009B000DF91CF911F910F910C94390361E0D4CF57
:1009C0000F931F93CF93DF93EC01162F042F462F25
:1009D000406860E00E94AB04402F406460E0CE01BC
:1009E0000E94AB040D871E87DF91CF911F910F915D
:1009F0000895CF93DF93C8EFD1E040E061E08DE14F
:100A000094E00E94AB042197C1F740E060E08DE1E3
:100A100094E0DF91CF910C94E0041F93CF93DF9388
:100A2000EC0110E08889181738F440E061E0CE014D
:100A30000E94AB041F5FF6CF4D854F5F6E85CE01E0
:100A40000E94E00410E08889181738F440E061E063
:100A5000CE010E94AB041F5FF6CF4D854F5F6E85C0
:100A6000CE010E94E00410E08889181738F440E0B5
:100A700061E0CE010E94AB041F5FF6CF4D856E850D
:100A80009F85983041F44250680FCE01DF91CF919D
:100A90001F910C94E0044F5FCE010E94E0044D854D
:100AA000435068898E85F0CFEF92FF920F931F938A
:100AB000CF93DF93EC019F85913030F0062F973074
:100AC00060F098509230A0F181E090E0DF91CF91FA
:100AD0001F910F91FF90EF90089540E061E0CE01EB
:100AE0000E94AB04F12C002E000C110B85E0E82EC7
:100AF0008889F816B8F48F85813091F48989980136
:100B0000281B3109E29EF001E39EF00D1124EF0D48
:100B1000F11DE859FF4F449161E0CE010E94AB0402
:100B2000F394E6CF40E061E0CE010E94AB04CCCF6D
:100B3000CE010E940D05C8CFFB0101900020E9F70E
:100B40003197AF01461B570BDC01ED91FC91028000
:100B5000F381E02D09941F920F920FB60F9211248A
:100B60002F933F934F935F936F937F938F939F93B5
:100B7000AF93BF93EF93FF93809138029091390226
:100B8000A0913A02B0913B02892B8A2B8B2BD1F199
:100B900090913302E0913402F091350280818927EF
:100BA00080838091380290913902A0913A02B091ED
:100BB0003B02181619061A061B069CF4809138028F
:100BC00090913902A0913A02B0913B020197A1099C
:100BD000B1098093380290933902A0933A02B093FE
:100BE0003B02FF91EF91BF91AF919F918F917F91C8
:100BF0006F915F914F913F912F910F900FBE0F908A
:100C00001F901895809100010E948503EACF1F92E2
:100C10000F920FB60F9211242F933F934F935F9330
:100C20006F937F938F939F93AF93BF93EF93FF93B4
:100C30008FE592E00E94AA02FF91EF91BF91AF91E0
:100C40009F918F917F916F915F914F913F912F91E4
:100C50000F900FBE0F901F9018951F920F920FB616
:100C60000F9211242F938F939F93EF93FF93E09113
:100C70006F02F09170028081E0917502F09176022E
:100C800082FD1BC09081809178028F5F8F732091CD
:100C90007902821741F0E0917802F0E0E15AFD4FCD
:100CA000958F80937802FF91EF919F918F912F9173
:100CB0000F900FBE0F901F9018958081F4CF1F9258
:100CC0000F920FB60F9211242F933F938F939F9300
:100CD000AF93BF9380912B0290912C02A0912D0293
:100CE000B0912E0230912A0223E0230F2D3758F5C0
:100CF0000196A11DB11D20932A0280932B0290938F
:100D00002C02A0932D02B0932E0280912F0290917D
:100D10003002A0913102B09132020196A11DB11DA5
:100D200080932F0290933002A0933102B09332024D
:100D3000BF91AF919F918F913F912F910F900FBED7
:100D40000F901F90189526E8230F0296A11DB11D44
:100D5000D2CF1F920F920FB60F9211242F933F9371
:100D60004F935F936F937F938F939F93AF93BF93B3
:100D7000EF93FF93E091FE02F091FF02908180914A
:100D80000003982320910103309102032F3F320783
:100D900031F02F5F3F4F3093020320930103809186
:100DA000FC02811135C0911116C0209101033091D0
:100DB00002032536310558F01092030330930603E1
:100DC0002093050381E0809304038093FC0210923A
:100DD00002031092010380913004813041F480912C
:100DE0002F04911161C061E0811161C02D9AFF91C2
:100DF000EF91BF91AF919F918F917F916F915F9193
:100E00004F913F912F910F900FBE0F901F9018950B
:100E10008091FC028130A1F49923E9F2E09104036E
:100E20008E0F80930403F0E0EE0FFF1FE450FD4FA0
:100E300020910103309102033287218782E0C5CFE0
:100E40008091FC02823039F5911119C0E0910403C0
:100E500081E0E03720F08093030383E0B6CF8E0F6C
:100E600080930403F0E0EE0FFF1FE450FD4F20914C
:100E70000103309102033287218781E0A6CF2091C0
:100E80000103309102032536310508F4A4CF83E035
:100E90008093FC02A0CF8091FC02833009F09BCFAD
:100EA000992309F494CF97CF882321F060E00E9422
:100EB00039039DCF2D989BCFCF93DF93EFE5F2E0E1
:100EC0001382128288EE93E0A0E0B0E084839583E1
:100ED000A683B7838DE691E09183808385EC90E0D3
:100EE0009587848784EC90E09787868780EC90E0F4
:100EF000918B808B81EC90E0938B828B82EC90E0E5
:100F0000958B848B86EC90E0978B868B118E128E5E
:100F1000138E148ECCEFD2E0D0934104C0934004E2
:100F200080E00E94780110922F04EDE1F4E013823A
:100F300012828FE791E0918380838FEB818784E138
:100F40008287138614861586168681E0878785E05A
:100F5000808B90E2918B92E0948393E0958394E070
:100F60009683878386E08087E1E0F4E088E090E084
:100F700091838083138212821482158216821782D3
:100F80001086118612861386148615861686178695
:100F9000118A108A138A128A158A148A178A168A65
:100FA000108E118E128E138E61E00E94B103D093C9
:100FB000F503C093F40389E0DF91CF910C9478019D
:100FC000CF93DF93CDB7DEB729970FB6F894DEBF86
:100FD0000FBECDBF789484B5826084BD84B5816036
:100FE00084BD85B5826085BD85B5816085BD8091F4
:100FF0006E00816080936E0010928100809181006C
:101000008260809381008091810081608093810063
:10101000809180008160809380008091B100846025
:101020008093B1008091B00081608093B000809186
:101030007A00846080937A0080917A008260809345
:101040007A0080917A00816080937A0080917A00A2
:10105000806880937A001092C100E0916F02F09155
:10106000700282E08083E0916B02F0916C0210824A
:10107000E0916D02F0916E028FEC80831092770206
:10108000E0917302F091740286E08083E091710236
:10109000F0917202808180618083E0917102F09111
:1010A0007202808188608083E0917102F091720207
:1010B000808180688083E0917102F091720280816A
:1010C0008F7D808361E087E00E94B10361E087E06B
:1010D0000E9439031092280483E1809327048FEB48
:1010E00080932604809124048F3F21F4909125045D
:1010F0009F3F91F061E00E94B10361E0809125047F
:101100000E94B10360E0809124040E94390360E0F2
:10111000809125040E94390361E0809121040E949E
:10112000B10361E0809122040E94B10361E08091EB
:1011300023040E94B10360E0809123040E943903DC
:1011400060E0809121040E9439030E94E2034B0178
:101150005C01E2E3CE2ED12CE12CF12C0E94E203C3
:10116000681979098A099B09683E734081059105D0
:10117000A8F321E0C21AD108E108F10838EE830E85
:1011800033E0931EA11CB11CC114D104E104F1048D
:1011900029F761E0809121040E94390341E260E077
:1011A0008DE194E00E94AB044091260460E08DE163
:1011B00094E00E94AB0444E060E08DE194E00E9482
:1011C000AB044091270460E08DE194E00E94AB0401
:1011D00040E260E08DE194E00E94AB04809128043D
:1011E0004CE081114DE060E08DE194E00E94AB04A1
:1011F0000E94F90481E080932C0485E080932D0403
:1012000080E280932E0460E08091FD020E94B10391
:101210001092800089E08093810080E293E09093B7
:10122000890080938800109285001092840080913C
:10123000FC02833011F41092FC0282E080936F0074
:1012400061E088E00E94B10344244A94542C3201A6
:1012500080910304909104048230910509F4AFC099
:101260008330910509F4CDC0019781F50E940704F0
:1012700000910D0410910E0420910F043091100480
:10128000601B710B820B930B0091050410910604F7
:1012900020910704309108046017710782079307B3
:1012A000A8F0E2E0F0E0F0930404E09303040E946D
:1012B000070460930D0470930E0480930F049093C1
:1012C000100461E0809101040E9439038091FC02C6
:1012D000833009F04CC78091440281110FC067E848
:1012E00071E08FE592E00E949C0563E272E08FE579
:1012F00092E00E949C0581E080934402A5E0B3E067
:10130000B0935202A09351028091040390E0909315
:1013100054028093530220910303222321F0109260
:1013200003031092040320910303209355021092AB
:10133000490210924A0210924B0210924C0220E88D
:101340002093EF03209107033091080326583109B9
:101350002C35310598F48430910509F012C3809141
:10136000090390910A038197489740F480910B03F9
:1013700090910C030897089708F442C340915302D8
:10138000509154024A31510508F465C3E09151026D
:10139000F0915202808191810A9708F045C3109222
:1013A0004D024092490250924A0260924B02709262
:1013B0004C0281E08093EF0383E190E030C30E9410
:1013C000070400910D0410910E0420910F04309138
:1013D0001004601B710B820B930B00910904109198
:1013E0000A0420910B0430910C04601771078207E6
:1013F000930708F46BCF109204041092030460E08A
:1014000061CF2091170430911804809115049091B8
:101410001604281739070CF0ABC28091190490917B
:101420001A04A0911B04B0911C04892B8A2B8B2BCE
:1014300009F0FEC1220F331FE0911304F091140450
:10144000E20FF31F6081718188EE93E00E94BB126E
:101450008B01CB01770FAA0BBB0B89839A83AB83DC
:10146000BC838091110490911204280F391FD90177
:101470002D903C90809101049091020420910001F4
:101480002813C0C0E6E6F2E0F491F987F7FDB0C199
:1014900061E00E94B103D984DD2021F0298522304A
:1014A00009F0FAC14101B12CA12C60E072E18AE798
:1014B00090E0A50191010E94CF122D833E834F83BE
:1014C000588769017A0131E0C31AD108E108F108AF
:1014D0008FEFC816D104E104F10409F00CF45DC1EA
:1014E00060E472E48FE090E0A50191010E94CF12C8
:1014F00069017A0191E0C91AD108E108F108A985CA
:10150000A23009F0FEC082E0BFEFCB16D104E104A7
:10151000F10409F00CF46FC060E970ED83E090E035
:10152000A50191010E94CF1269017A01E1E0CE1A72
:10153000D108E108F10883E0FFEFCF16D104E10400
:10154000F10409F00CF457C068E478EE81E090E013
:10155000A50191010E94CF1269017A0181E0C81AA8
:10156000D108E108F10884E09FEFC916D104E10435
:10157000F10409F00CF43FC064E274EF80E090E005
:10158000A50194010E94CF1269017A01A1E0CA1A53
:10159000D108E108F10885E03FEFC316D104E1046A
:1015A000F10449F140F162E17AE780E090E0A501C1
:1015B00094010E94CF1269017A01A1E0CA1AD108F0
:1015C000E108F10886E0BFEFCB16D104E104F10495
:1015D00091F088F0CD80DE80EF80F8848AE0F59489
:1015E000E794D794C7948A95D1F731E0C31AD1080C
:1015F000E108F10887E09091B100987F892B8093F2
:10160000B100D3C02F3F09F0F3C080930001E6E69C
:10161000F2E0F491F987FF3F09F4EAC0F13039F1C3
:1016200048F0F23009F445C0F7FDE2C061E00E94E5
:10163000B10334CF14BC15BC24B5226024BD25B53C
:10164000216025BD9C013327F901EF58FD4FE4913E
:10165000F0E0EE0FFF1FE45AFD4F45915491F90160
:10166000EB57FD4FE491E0933702198611CF1092AA
:1016700080001092810020918100286020938100D9
:10168000209181002160209381009C013327F90182
:10169000EF58FD4FE491F0E0EE0FFF1FE45AFD4FCD
:1016A00045915491F901EB57FD4FE491E0933602D7
:1016B000EFCE1092B0001092B1002091B0002260E5
:1016C0002093B0002091B10021602093B1009C01D3
:1016D0003327F901EF58FD4FE491F0E0EE0FFF1FC3
:1016E000E45AFD4F45915491509335024093340292
:1016F000F901EB57FD4FE491E093330222E0298793
:10170000C7CE2FEFC216D104E104F10409F00CF4A6
:10171000C1C068E478EE81E090E0A50191010E94EB
:10172000CF1269017A0181E0C81AD108E108F108F5
:10173000998584E0911130CF83E02FEFC216D10458
:10174000E104F10471F16CF162E17AE780E090E08C
:10175000A50194010E94CF1269017A01E1E0CE1A3D
:10176000D108E108F10884E0FFEFCF16D104E104CD
:10177000F104B9F0B0F0CD80DE80EF80F8849AE01B
:10178000F594E794D794C7949A95D1F721E0C21ABB
:10179000D108E108F10885E004C081E0B985B11104
:1017A0002ACF95B5987F892B85BD89819A81AB8198
:1017B000BC812FEF3FEFA901892B8A2B8B2B09F0DE
:1017C000A8C09985913009F4B1C0923009F4C0C025
:1017D00091110EC0C7BC2093400230934102409348
:1017E00042025093430280916E00826080936E00AB
:1017F00069817A818B819C810E94331126E636E6CD
:1018000046EA5FE30E946E110E9478126093190409
:1018100070931A0480931B0490931C040E94070485
:1018200060930D0470930E0480930F049093100442
:101830000E94070400910D0410910E0420910F04E2
:1018400030911004601B710B820B930B00911904F3
:1018500010911A0420911B0430911C046017710729
:101860008207930708F432CD809101040E9485031A
:101870001092190410921A0410921B0410921C0466
:101880008091170490911804019690931804809306
:1018900017041CCD82E082CFB12CA12C60E072E154
:1018A0008AE790E0A50191010E94CF1269017A01B7
:1018B000E1E0CE1AD108E108F10891E0C114D104A9
:1018C000F1E0EF06F10484F068E478EE81E090E066
:1018D000A50191010E94CF1269017A0181E0C81A25
:1018E000D108E108F10893E0A985A13009F05DCFA6
:1018F00080918100887F892B8093810089819A81E2
:10190000AB81BC812FEF3FEFA901892B8A2B8B2B59
:1019100069F09101220F331FD8010E94EE1228EEC8
:1019200033E040E050E00E943C124BCFD09289005F
:10193000C092880020933C0230933D0240933E02C7
:1019400050933F0280916F00826080936F0050CF70
:10195000C092B300209338023093390240933A0288
:1019600050933B028091700082608093700040CF62
:10197000809101040E9485031092040410920304D4
:10198000A5CC8434910509F0F9CC8091090390919C
:101990000A03825491098F9708F0F0CC20E332E0DB
:1019A00040E956E060E372E080E20E942804882368
:1019B00009F4E4CCE0915102F0915202EA57FF4F52
:1019C000808191810897089708F0D8CC8091F00326
:1019D0009091F103A091F203B091F3038093490237
:1019E00090934A02A0934B02B0934C0280E2809302
:1019F0004D0288E090E090934602809345020FC02C
:101A000010924D024092490250924A0260924B025B
:101A100070924C0281E88093EF0388E090E090930D
:101A2000E6038093E503CBC08281938184974A9734
:101A300090F423E030E060E0C12CD12C7601848169
:101A400095810897089738F48681978182319105AE
:101A5000A8F18097E8F181E080935E0289E793E046
:101A600090935C0280935B0210925D020E9495014C
:101A7000813009F0CEC0C12CD12C76011982E091C1
:101A8000F403F091F503908580915E02891708F0C8
:101A900045C00E9495018D830E949501BD81B111C1
:101AA00032C0813009F0B5C0CC0CDD1CEE1CFF1C2F
:101AB0006894C0F8F981FF5FF983E1CF893091051F
:101AC00050F2419740F6CC0CDD1CEE1CFF1C06C00A
:101AD000CC0CDD1CEE1CFF1C6894C0F86F5F2E5F01
:101AE0003F4F34962417350708F4A9CF60934D0271
:101AF000C0924902D0924A02E0924B02F0924C020C
:101B000083E190E078CFED81E13009F082C081116E
:101B100080C0CC0CDD1CEE1CFF1CCCCF2981822F99
:101B200090E09093EE038093ED03C092F003D09287
:101B3000F103E092F203F092F3038C2D8F7390E0A7
:101B40009093EA038093E903960146E03695279542
:101B50004A95E1F72F7133273093E8032093E70389
:101B6000960122273071232B31F4805C9F4F909394
:101B7000EA038093E90380E8D3FC88E88093EF03CD
:101B800081859285833E984028F48091EF0381609F
:101B90008093EF038FE090E09093E6038093E5035A
:101BA000A981A0934D02C0924902D0924A02E092CC
:101BB0004B02F0924C029093460280934502209192
:101BC00057028091490290914A02A0914B02B09134
:101BD0004C028F3930E693073FEFA307B10509F4B4
:101BE0002CC38F37E0E89E07EFEFAE07B10509F48D
:101BF000A5C28F3B9044AF4FB10509F0B2C281E05E
:101C00002827209357029091560289270E94170493
:101C1000A8C2E091F403F091F50383859485889739
:101C20004D9708F04CC0858596850C970B9708F06A
:101C300046C083E080935E028CEB91E090935C025F
:101C400080935B0210925D020E9495018130B9F58C
:101C50000E9495018983811132C0C12CD12C76015B
:101C6000E091F403F091F503908580915E0289176D
:101C700008F070C00E949501182FB981B330D9F0D7
:101C80000E9495018D83E981E33029F40E9495013A
:101C9000FD81F81314C0113009F051C02D812111BC
:101CA0000EC0CC0CDD1CEE1CFF1C6894C0F88981B2
:101CB0008F5F8983D5CF0E949501181709F3809112
:101CC0005302909154028236910508F494C0E09139
:101CD0005102F091520282819381C397859708F057
:101CE0008AC0848195814A97439708F084C020EB8D
:101CF00031E040E155E060EB71E08CE20E942804A5
:101D0000882309F478C080E380934D028091F0032A
:101D10009091F103A091F203B091F30380934902F3
:101D200090934A02A0934B02B0934C0282E090E25F
:101D3000909348028093470289E090E05CCE1111B5
:101D4000BECF3D81313009F0BACFCC0CDD1CEE1C8A
:101D5000FF1CADCFA9818A2F90E09093EE03809372
:101D6000ED03C092F003D092F103E092F203F092FF
:101D7000F3032C2D30E08D2DA43230F580E88093D4
:101D8000EF033093EA032093E9038D2D90E09093C5
:101D9000E8038093E703E0FE03C088E88093EF0345
:101DA0008185928583379A4028F48091EF03816082
:101DB0008093EF0380E190E09093E6038093E50346
:101DC000E981E0934D02EFCE90E99093EF03D7FEC7
:101DD00003C098E99093EF033093EA032093E9035B
:101DE0008F7790E09093E8038093E703F092EC0301
:101DF000E092EB03D5CF8091530290915402CC979F
:101E0000E1F5E0915102F09152028281938186586E
:101E100091098D35910588F584819581CE978C97B0
:101E200060F526E232E04CE256E064EF71E08CE1CE
:101E30000E942804882309F1E0915102F091520296
:101E4000EA58FF4F8081918107970897B0F48091FD
:101E5000F0039091F103A091F203B091F30380930A
:101E6000490290934A02A0934B02B0934C028CE13A
:101E700080934D0286E090E0BECD40915302509198
:101E80005402E0915102F0915202828193814232D8
:101E9000510589F49C01285031092730310558F447
:101EA000DF01AE5BBF4F2D913C91285031092730A7
:101EB000310508F45DC08D5791098735910508F407
:101EC00067C0E0915102F091520282819381825465
:101ED00091098F9798F48091530290915402843025
:101EE000910509F08DC0848195818197489730F4E0
:101EF000868197810897089708F4AFC0E091F403B2
:101F0000F091F5038085823209F0B7C0E09151026B
:101F1000F0915202828193810497059708F0ADC039
:101F2000848195810B970A9708F0A7C02CE033E0D5
:101F30004CE157E064E071E08FE00E9428048823C0
:101F400009F49BC08091F0039091F103A091F203FA
:101F5000B091F3038093490290934A02A0934B02FD
:101F6000B0934C028FE080934D0283E090E043CD2C
:101F700010924D024092490250924A0260924B02E6
:101F800070924C0281E08093EF0385E090E047CDB2
:101F90004432510508F495CF84819581CE978C9772
:101FA00008F08FCF2EE032E04AE256E06EE072E0B9
:101FB00080E10E942804882309F483CFE091510234
:101FC000F0915202EA5BFF4F808191810897079759
:101FD00008F077CF8091F0039091F103A091F20384
:101FE000B091F3038093490290934A02A0934B026D
:101FF000B0934C0280E180934D0285E090E0FBCCF1
:102000008434910508F47ACF8481958181549109B3
:102010008F9708F073CF29E232E04BE756E069E290
:1020200072E080E20E942804882309F467CF80913F
:10203000F0039091F103A091F203B091F303809328
:10204000490290934A02A0934B02B0934C0280E263
:1020500080934D0281E190E0CECC10924D024092EF
:10206000490250924A0260924B0270924C0281E007
:102070008093EF0381E190E0D2CCE0905302F090A6
:102080005402F6E0EF16F10408F46BC0E09151023F
:10209000F0915202329603E010E025EC3DE94CE16C
:1020A00051E88481958161917191AAE0A89F6001B6
:1020B000A99FD00C1124DB01AA0FBB1FAA0FBB1FC5
:1020C000AA0FBB1FCA16DB06A0F1AAE0DA2ED69E25
:1020D000D001D79EB00D112463E0880F991F6A9537
:1020E000E1F7A817B90738F582E0898363E971E061
:1020F00080E091E00E942C129B01AC01D9802D253B
:102100000F5F1F4FE016F10661F6209349023093EE
:102110004A0240934B0250934C0280E280934D025E
:1021200010924602109245021092E6031092E503C7
:1021300046CD1982DBCF91E09983D8CF80915802A8
:1021400091E0892780935802809101040E948503C1
:1021500060E0809101040E943903109204041092FF
:1021600003048091FC02833011F41092FC028091F0
:10217000570281110CC080915602882309F464C073
:102180000E941B0249971CF080E00E9417040E94E5
:10219000F90440E060E08DE194E00E94E00466E232
:1021A00072E08DE194E00E949C05809158028823A2
:1021B000A1F18091030490910404892B71F585E3CA
:1021C00091E0909312048093110481E091E0909348
:1021D0001404809313048AE190E090931604809392
:1021E00015041092180410921704109219041092FA
:1021F0001A0410921B0410921C0483E090E0909348
:102200000404809303040E94070460930D047093F8
:102210000E0480930F049093100480E090E0892BCB
:1022200011F40C9428090E949602882311F40C944E
:1022300028090E9400000C942809222309F491CF58
:102240009091560281E0E1CC0E941B0240970CF075
:102250009ECF60E087E00E94390381E080935602C0
:1022600096CFE89409C097FB3EF4909580957095C1
:1022700061957F4F8F4F9F4F9923A9F0F92F96E9D2
:10228000BB279395F695879577956795B795F11147
:10229000F8CFFAF4BB0F11F460FF1BC06F5F7F4FE4
:1022A0008F4F9F4F16C0882311F096E911C07723F6
:1022B00021F09EE8872F762F05C0662371F096E8FF
:1022C000862F70E060E02AF09A95660F771F881FCE
:1022D000DAF7880F9695879597F908950E948111EE
:1022E0000C94F2110E94E41138F00E94EB1120F0DE
:1022F000952311F00C94DB110C94E11111240C9432
:1023000026120E94031270F3959FC1F3950F50E0BF
:10231000551F629FF001729FBB27F00DB11D639F97
:10232000AA27F00DB11DAA1F649F6627B00DA11D3D
:10233000661F829F2227B00DA11D621F739FB00DE3
:10234000A11D621F839FA00D611D221F749F332753
:10235000A00D611D231F849F600D211D822F762FEC
:102360006A2F11249F5750409AF0F1F088234AF0C9
:10237000EE0FFF1FBB1F661F771F881F9150504035
:10238000A9F79E3F510580F00C94DB110C942612A6
:102390005F3FE4F3983ED4F3869577956795B795BC
:1023A000F795E7959F5FC1F7FE2B880F911D9695D6
:1023B000879597F9089597F99F6780E870E060E046
:1023C00008959FEF80EC089500240A9416161706CE
:1023D00018060906089500240A9412161306140616
:1023E00005060895092E0394000C11F4882352F079
:1023F000BB0F40F4BF2B11F460FF04C06F5F7F4F31
:102400008F4F9F4F089557FD9058440F551F59F017
:102410005F3F71F04795880F97FB991F61F09F3FD1
:1024200079F087950895121613061406551FF2CFFA
:102430004695F1DF08C0161617061806991FF1CF4A
:1024400086957105610508940895E894BB27662771
:102450007727CB0197F90895DB018F939F930E9413
:102460005E12BF91AF91A29F800D911DA39F900D11
:10247000B29F900D11240895A1E21A2EAA1BBB1B36
:10248000FD010DC0AA1FBB1FEE1FFF1FA217B30740
:10249000E407F50720F0A21BB30BE40BF50B661F56
:1024A000771F881F991F1A9469F76095709580951A
:1024B00090959B01AC01BD01CF0108950E94691266
:1024C000A59F900DB49F900DA49F800D911D112488
:1024D0000895A29FB001B39FC001A39F700D811DFD
:1024E0001124911DB29F700D811D1124911D08951D
:1024F0000E940B1288F09F5798F0B92F9927B75177
:10250000B0F0E1F0660F771F881F991F1AF0BA9597
:10251000C9F714C0B13091F00E942512B1E00895BE
:102520000C942512672F782F8827B85F39F0B93FB0
:10253000CCF3869577956795B395D9F73EF490954A
:102540008095709561957F4F8F4F9F4F0895AA1B7F
:10255000BB1B51E107C0AA1FBB1FA617B70710F08E
:10256000A61BB70B881F991F5A95A9F780959095C0
:10257000BC01CD01089597FB072E16F4009407D0F7
:1025800077FD09D00E94A71207FC05D03EF4909574
:1025900081959F4F0895709561957F4F0895052E01
:1025A00097FB1EF400940E94E61257FD07D00E948C
:1025B0003C1207FC03D04EF40C94E6125095409563
:1025C000309521953F4F4F4F5F4F089590958095DF
:1025D000709561957F4F8F4F9F4F08950E946912AC
:1025E000B7FF0895821B930B0895EE0FFF1F059010
:0A25F000F491E02D0994F894FFCF58
:1025FA00FF0800080004000800080004000800089A
:10260A000008000800020008000800080008000886
:10261A000008000800100010000800080008000860
:10262A00000400040093029302930293029302931C
:10263A0002930210030B024B029302BA02BA02BAC5
:10264A0002BA02BA02930293029302930293024BD2
:10265A00024B0293024B02100300000000CC022C32
:10266A0002590219038A0268027C0200000000541F
:10267A00052C02140413045468652066756E63748D
:10268A00696F6E206465636F646528267265737569
:10269A006C7473292920697320646570726563619B
:1026AA0074656420616E64206D6179206E6F742098
:1026BA00776F726B206173206578706563746564E7
:1026CA0021204A75737420757365206465636F648D
:1026DA0065282920776974686F7574206120706194
:1026EA0072616D6574657220616E6420497252650B
:1026FA006365697665722E6465636F6465644952C1
:10270A00446174612E3C6669656C646E616D653EF8
:0A271A00202E000D0A0055C59A009C
:00000001FF
